:1020000000800020592800004128000041280000DD
:1020100000000000000000000000000000000000C0
:102020000000000000000000000000004128000047
:10203000000000000000000041280000AD28000062
:1020400041280000412800004128000041280000EC
:1020500041280000412800004128000045280000D8
:10206000412800008D270000412800004128000081
:1020700041280000412800009D2700004128000061
:1020800041280000412800004128000041280000AC
:102090000000000041280000412800004128000005
:1020A000412800004128000041280000412800008C
:1020B0000000000010B5064C2378002B07D1054B1B
:1020C000002B02D0044800E000BF0123237010BDA4
:1020D0001001002000000000B451000008B5084BBA
:1020E000002B03D00748084900E000BF07480368F9
:1020F000002B03D0064B002B00D0984708BDC046EC
:1021000000000000B451000014010020080100206C
:1021100000000000F0B5D44FE121B5B0381C4902F1
:1021200001F01CFB1220012100F078FD112001219B
:1021300000F074FD1020012100F070FD0F2001213E
:1021400000F06CFD0E20012100F068FD132001213C
:1021500000F064FD0D20012100F060FD032001214D
:1021600000F05CFD0320002100F0B2FDBF4C6B4687
:10217000251C03CD03C3BE4E0099301C626800F0DD
:102180009FFA02AB1A1C03CD03C2301C0299039ABA
:1021900000F096FA04AB1A1C03CD03C2B54E0499A5
:1021A000301C059A00F08CFA06AB1A1C03CD03C252
:1021B000301C0699079A00F083FA08AB1A1C03CD6D
:1021C00003C2AD4E0899301C099A00F079FA0AABA7
:1021D0001A1C03CD03C2301C0B9A0A9900F070FA46
:1021E000A648002100F065FAA548002100F061FA38
:1021F000A448002100F05DFAA34EA14C01250CABD0
:102200000F221A705D70321C9C480C9900F058FA2D
:1022100001235D409D4BF6189D4B9E42EFD10EABC6
:102220000F221A705D7095480E99321C00F048FA22
:1022300098489949012336185D408E42EFD110AB82
:102240000F221A705D70321C8C48109900F038FA19
:1022500001235D40914B643E9E42F0D112AB0F22B0
:102260001A705D70321C8548129900F029FA01231A
:102270005D40FA239B00F618894B9E42EED114ABC9
:102280000F221A705D707D48321C149900F018FA04
:102290000123C8205D40C000824B36189E42EED11B
:1022A00016AB0F221A705D701699321C734800F03D
:1022B00007FA962189007C4B012776187D409E42C3
:1022C000EED1714E18AB0E221A705F70201C321CBA
:1022D000189900F0F5F901235F40744B6E48F61829
:1022E0008642EFD11AAB0E221A705F701A99321C17
:1022F000201C00F0E5F96E49012376185F40002E9E
:10230000F0D11CAB0E221A705F70321C201C1C997D
:1023100000F0D6F9913601235F40FF36FA231B0106
:102320009E42EED11EAB0E221A705F70321C201C32
:102330001E9900F0C5F9AF231B01F6185D4B01256E
:102340006F409E42EED1504C20AB13224D4F1A707D
:102350005D70381C221C209900F0B2F9012353480B
:102360005D40554B24189C42EED122AB13221A70CB
:102370005D702299221C381C00F0A2F901234F49FC
:102380005D404F4B64189C42EFD10A2624AB1322C8
:102390001A705D703B482499494A00F091F9013E5A
:1023A00001235D40002EF1D126AB13221A705D701F
:1023B000221C381C269900F083F901235D40FA2382
:1023C0009B00E4183F4B9C42EED128AB13222D4ECC
:1023D0001A705D70221C301C289900F071F9C82019
:1023E000C000394B0122241855409C42EDD12AAB44
:1023F000364D0D215A701970281C2A99344A00F064
:102400005FF91A4A2CAB191C303211CA11C11B4892
:102410002C992D9A00F054F9144A2EAB191C38321D
:1024200011CA11C116482E992F9A00F049F90F4A86
:1024300030AB191C403211CA11C1301C3099319A8D
:1024400000F03EF9094C32AB1A1C483403CC03C2ED
:10245000281C3299339A00F033F91E49024800F0E3
:102460001FFD35B0F0BDC046580300207C4C000075
:10247000480100205C010020700100208401002040
:1024800098010020AC010020409C000030F8FFFFC4
:10249000204E000018FCFFFF10270000282300003A
:1024A000384A0000F8A70000B0B3000024FAFFFF8C
:1024B0008FFDFFFFC0A80000A861000050FBFFFFD8
:1024C000581B0000F05500007094000030010020FF
:1024D00020A10700CC4C0000F8B5012000F026FA3E
:1024E000474800F012F9474B013BFDD1464800F048
:1024F0000CF9444B013BFDD1444F381C00F005F969
:102500003F4800F002F9404800F0FFF8381C00F0A6
:10251000FCF83F4800F0F9F83E4D2B78002B08D12D
:102520003D4800F0F2F83D4800F0EFF83C4800F07C
:10253000ECF82B78002B0ED1374800F0E4F8002897
:10254000DED0364800F0DFF80028D9D0344800F05B
:10255000DAF80028D4D0334C20780328D0D802F001
:102560004DF9020926380123237000F0ADF92E4BF6
:102570001860C5E700F0A8F92B4D2B68C01A2B4B4B
:102580009842BDD9022301210320237000F0A0FB53
:1025900000F09AF926492860264801F041F8264BB8
:1025A000011C18600A22254800F0B5FCA8E700F0DD
:1025B0008BF91D4D2B68C01A1E4B9842A0D90320E1
:1025C000002100F085FB00F07FF9032328602370D1
:1025D00096E700F079F9144B1B68C01A164B1B687C
:1025E00098428DD900260C48267000F064F80B48FC
:1025F00000F061F80A4800F05EF82E7080E7C046EF
:1026000048010020B0CD00005C01002070010020D6
:1026100030010020000000208401002098010020EB
:10262000AC0100202C01002044010020002D3101CC
:1026300050C300008813000004000020580300204D
:1026400008B50B4800F022F80A4800F01FF80A48C5
:1026500000F01CF8094800F019F8094800F016F8D5
:10266000084800F013F8084800F010F808BDC0460C
:10267000480100205C01002070010020840100203E
:1026800098010020AC0100203001002010B5041C8E
:102690000C2000F0D1FB0023012203604360836023
:1026A00060602270201CA360E36022746374A374D2
:1026B00010BD017470470023437401238374704775
:1026C000F7B544680091666821686D4601928E42B4
:1026D00010D10120002E00D070006060C00002F018
:1026E0006DF9F200A168071C02F07CF9A06802F005
:1026F0006FF9A7602268A368511CD20021609B1863
:1027000006CD06C3F7BD407C704738B50378041C7E
:10271000002B39D043681968002935D0427C002A43
:1027200032D181689D68CA00AD18C268002A02D102
:1027300000F0CAF8E06000F0C7F8E2686B68801A41
:10274000984221D96268A36811680133A3608B4263
:102750000FD3237C002B02D00023A36009E0A07CD0
:10276000002802D0A360A37403E001390123A16013
:102770006374A1689268CB00D3181878597800F078
:10278000A7FA00F0A1F8E06038BD000008B50248E3
:1027900000F060FE08BDC0467C02002008B502487B
:1027A00000F058FE08BDC046C0010020F7B5164F26
:1027B0001649381C00F002FC1549164800F0FEFBD3
:1027C0001549164800F0FAFB1549164800F0F6FBCB
:1027D0001549164800F0F2FB154D03260124281C6C
:1027E000144900F0EBFB391C0096231C01940022D5
:1027F000114800F04FFD0096291C01941F221E2352
:102800000E4800F047FDF7BD3C03002000080042E1
:10281000000C00424003002000100042440300204E
:102820000014004238030020001800424803002032
:102830004C030020001C00427C020020C00100204C
:10284000FEE7000008B5034B1B68002B00D098473B
:1028500008BDC0465003002038B50F490F4CA142B7
:1028600004D100F081F800F0C7FA0BE00C4D8D4266
:10287000F7D00023CA18E818A24204D20068043333
:102880001060F7E7FEE79042EBD0064B064A934212
:10289000E7D2002204C3F9E7000000201001002065
:1028A000B8510000100100205009002008B500F0C8
:1028B00058F8002801D100F049F808BD014B186014
:1028C0007047C04650030020F7B5144D144CA9685A
:1028D0001448626803685201D20F2E1C271C8446DC
:1028E000B0687D6801906D016046ED0F0468AA42F2
:1028F00003D02A1C231C0199F2E7A342FAD10198C4
:102900008142F7D30548D2184068FA23411A064895
:102910009B0048435343000DC018FEBD10E000E08B
:1029200000ED00E0540300205555000070B5041E72
:1029300008D0054B1D681E1C00F012F833685B1BA5
:10294000A342F9D370BDC0465403002008B5034B21
:102950001A6801321A6000F0F7FA08BD540300202B
:10296000704700207047000070B5494A1E21536827
:1029700002208B430343474953608B690824234358
:102980008B61454C454B9C829C8A20439882101C4D
:10299000DA689407FCD5424A012414701478E507DC
:1029A00004D53F4C647864B2002CF7DB01249460BA
:1029B000547864B2002CFBDB3A4D394C6560547896
:1029C00064B2002CFBDB8225354CED016580547828
:1029D00064B2002CFBDB02249C84DC68E606FCD598
:1029E000314D2E4CE562DD682C4CEE06FBD5A58CF6
:1029F0002E4E3543A584DD68284CEE06FBD5A58C0C
:102A000002263543A584DC682506FCD5234CE46802
:102A10006606F8D5DC68E506FCD500249460547899
:102A200064B2002CFBDB224D1D4C656055781C4CBC
:102A30006DB2002DFADB1E6A1E4D35401D621D6A07
:102A40008026B5431D620323A3601B4B636053784C
:102A50005BB2002BFBDB00230B72184A4B728B72AC
:102A6000CB72174BFF211A60164B174A1B6812686E
:102A70005C01D20E214011439A06520F12020B1C28
:102A80001343124A1385436880221343436070BD89
:102A900000400041000400400C0600000008004017
:102AA000000C004001050100B905FF7D040A00008B
:102AB00000070300FFFCFFFF03060100006CDC02BF
:102AC0000800002024608000206080000040004258
:102AD000314BFA21186810B5890001F099FE2F4B8F
:102AE0000138984224D82E4A2E4B5060186AC021D3
:102AF0000002000A090601431962002407219460BC
:102B00001160196A80220902090A12060A431A6230
:102B1000254BFC211A6A0A431A62196AFC229201A7
:102B20000A431A62196AA022D2020A431A6200E01A
:102B3000FEE7201C0021013400F070F8142CF8D1BD
:102B40001A4C63785BB2002BFADB194B6380194B8C
:102B50005A7ED209012AFAD0E422D2009A803F227A
:102B6000DA70597E134AC9090129FAD0C0235B01E2
:102B700000201361907000F023F863785BB2002BA3
:102B8000FBDB0D4A094B5A800C4BDA79D209012A3A
:102B9000FAD041225A7010BD08000020FFFFFF004C
:102BA00010E000E000ED00E000040040000C0040F8
:102BB0001E4000000040004221400000004800424A
:102BC00000B5144A517E131CC9090129F9D00138F6
:102BD000042813D81969104A0A401A615A780F213B
:102BE0008A4301F00BFE030509070300012102E0FF
:102BF000032100E002210A435A700AE01169F02320
:102C00001B050B43136153780F218B4302210B43A8
:102C1000537000BD00400042FFFFFFF010B51824C4
:102C2000021C201C5043274B1818007A40B2013078
:102C300046D0032944D8081C211C01F0DFFD0233D3
:102C40001121624398569A18C3011F4852681B18F5
:102C500099184031022008700121914059602FE0FD
:102C60006243985618499A185268C3015B1899181C
:102C700040310620087001219140596099611FE0A0
:102C800051435A56104859184B68D2011118C818A8
:102C90004030062404700120984048600B495218C7
:102CA00050600DE0624398569A18C3010648526876
:102CB0001B18991840310220087001219140996039
:102CC00010BDC046D44C00000044004110440041F7
:102CD00018235843134AF0B5131808241C5701341D
:102CE0001FD08256104ED2015D6801249019231C1A
:102CF0008668AB401E420BD10E1C771EBE414019A8
:102D000034404030A50004780426B4432C430470BA
:102D1000002903D105495218536002E0024E92196E
:102D20009361F0BDD44C00000044004110440041C8
:102D300018224243F8B52D4D0824AA181457031C35
:102D4000621C50D0481C00240C284CD801F056FDC1
:102D5000071E1E1E1E1E1E1E1E0A0A0A0A0001242F
:102D6000644240E0092902D1181C002103E00A292D
:102D700004D1181C0221FFF751FF23E000240B2986
:102D800031D1181C0121FFF749FF2CE018225343D1
:102D9000EA185268EB560120141C04405508DB0168
:102DA000002C11D0124C1B195D1930352E780C01F6
:102DB0000F21314021439A18C9B22970403213784B
:102DC0001843107000240EE0094E0F279B195D195F
:102DD00030352E789A18BE433143C9B2297040323B
:102DE000137818431070201CF8BDC046D44C000066
:102DF000004400417047000010B5FFF769FE01F084
:102E0000B7FDFFF7F7FF0120FFF790FD084C201CEE
:102E100000F000FF201C00F075FFFFF77BF9FFF7C3
:102E20005BFB044B002BFAD000E000BFF7E7C04685
:102E3000230800200000000008B501F0BFFD08BD18
:102E4000F7B58A18061C0D1C01920C1C019B671B10
:102E50009C4207D0336821781B68301C98470134A6
:102E60000028F3D1381CFEBD08B50368C9B21B6841
:102E7000984708BD38B5051C0C1C081E07D001F08A
:102E8000ADFE2B68021C5B68281C211C984738BDCE
:102E900008B50249FFF7EEFF08BDC046F450000038
:102EA00038B5041CFFF7E6FF051C201CFFF7F0FFF8
:102EB000281838BDF0B58DB0161C0BAB0022019060
:102EC0000C1C1A70012E00D80A266D462B35201CCA
:102ED000311C01F0E1FC201CCFB2311C01F098FC48
:102EE000291C041C092F01D8303700E03737FFB206
:102EF0002F70013D002CEAD10198FFF7BBFF0DB008
:102F0000F0BD08B5002A02D1FFF7AEFF02E0D2B251
:102F1000FFF7D0FF08BD38B5041CFFF7F2FF051C12
:102F2000201CFFF7B5FF401938BD0000014B1860A9
:102F30007047C0460C000020024B012252421A602A
:102F40007047C0460C000020154A1368581C25D055
:102F5000013B1360002B21D172B6124A124B04328E
:102F60009A4207D8BFF34F8F104A114BDA60BFF374
:102F70004F8F11E00F4B197DC807FBD5188B20210F
:102F8000FF319208520001431983DA610A4A1A801C
:102F90001A7DD107FCD5E5E7C046FDE77047C0467E
:102FA0000C00002000200000030200000400FA05CD
:102FB00000ED00E00040004102A5FFFF0160704706
:102FC000F7B508AC267804689D1E27686C1EA541DD
:102FD000ECB2920705683A4327063A432A60026832
:102FE000072529405068B501002C00D05C03294317
:102FF00001430C435460F7BD30B50368C0251C681D
:10300000AD0312052A402243C024A4020904214032
:103010001143196003685A6814435C6030BD03684B
:1030200001211A680A431A600268116801231942D3
:10303000FBD1D1691942F8D17047036802211A689F
:103040000A431A600268D3699907FCD47047036881
:103050001A7ED10702D41A7E9107FCD57047036807
:1030600000225A8370470368187E4007C00F7047DC
:103070000368187EC009704703688022197E524297
:103080000A431A7670470368187E01231840704778
:103090000368188DC0B2704703681A7E012002428F
:1030A000FBD019857047036801229A757047036841
:1030B00001221A75704700000368224A30B5934216
:1030C00011D0214A934211D0204A934211D0204A74
:1030D000934211D01F4A934211D01F4A934230D1DC
:1030E0000E2319220DE0092314220AE00A231522D7
:1030F00007E00B23162204E00C23172201E00D2326
:103100001822DCB2154901209B08A0409B000860F2
:103110005B180320C021890004405D58E000FF24B3
:103120008440A5432C1CC0258540281C20435850B2
:103130008023DB011A430A4B5A805A7852B2002A84
:10314000FBDB30BD00080042000C004200100042D2
:103150000014004200180042001C004200E100E0A0
:10316000000C0040F8B5041C151C0E1C1F1CFFF7BA
:10317000A3FF201CFFF753FFB1001C220A40690780
:103180002368090C0A431A60226884239375012E70
:103190001AD10821012D00D110210C4B7943186858
:1031A000C00001F035FB236807219A890140D20451
:1031B0004903D20C0A439A8123680004C20C9889FF
:1031C000400B400310439881F8BDC0460800002022
:1031D0000120704708B50368014A1B6A984708BD7B
:1031E00013040000826D436D9A4203D0836DC018B2
:1031F000007D01E001204042704710B5041C0069C9
:10320000FFF70DFF0023221C63659C32A365A034E9
:103210001360236010BD0000F0B587B001930CABC4
:103220001B78002502930DAB1B78402603930EAB51
:103230001B78041C04930FAB1B780F1C0593FA2317
:103240009B008360124B0092083303604560291C89
:10325000321C143001F0CFFB201C6565321CA565C3
:10326000291C5C3001F0C7FB009A231C9C331D60B5
:103270005D6027611A72019A201C5A72029A9A7232
:10328000039ADA72049A1A73059A1A7707B0F0BD96
:103290000851000030B585B0041C08A8057809A8BD
:1032A000007800950190FF2002900390201CFFF70A
:1032B000B3FF201C05B030BDF023081C1840303887
:1032C000434258417047F0231B01194080239B0063
:1032D00099420CD0C0239B00994206D080235B000A
:1032E0000520994204D0002002E0072000E00620DB
:1032F00070470F231940012905D002394B424B4139
:103300000220C01A00E0002070470000F0B5031C46
:1033100085B00391A433041C182718783B1C434341
:10332000344E0821F3185956151CFFF701FD231CD4
:10333000A53318783B1C43430821F3185956FFF76F
:10334000F7FC231CA7331B78022B0AD1231CB833AC
:103350001878FF2805D047430821F7197956FFF759
:10336000E7FC271CA8373878FF281AD00121FFF77F
:1033700055FC3B7818225A43B3561F4FDB01211CE2
:10338000AC31D81908601D49B6185B18211C726849
:10339000B0310B60012191400A1C211CB4310A603C
:1033A0001A6001210A1C039B2069FFF7DBFE291C20
:1033B000201CFFF788FF291C071C201CFFF799FF22
:1033C000291C061C201CFFF777FF391C0090331CBA
:1033D00020690122FFF7F4FD231CA7331978013B74
:1033E0001A782069FFF708FE2069FFF726FE05B06E
:1033F000F0BDC046D44C00001844004114440041C4
:10340000026C436CD01A00D54030704710B5041CD4
:10341000201C5C30FFF7F4FF0028F9D12069FFF78A
:1034200016FE10BD08B51430FFF7EAFF08BD026CA8
:10343000436C9A4204DB036C406CC01A3F3003E0DB
:10344000426C036CD01A0138704708B55C30FFF746
:10345000EEFF08BD38B5041C0069FFF704FE002824
:103460001FD02069FFF714FE636D3F220133134024
:10347000A26D934203D0626DA21810756365231C80
:10348000A8331B78FF2B0CD0201C1430FFF7CFFF84
:10349000092806DC231C221CAC33B4321B681268DA
:1034A0001A602069FFF7EFFD002820D0251C5C354D
:1034B000281CFFF7A5FF031C2069002B15D0231C37
:1034C000221CA0339C3219681268914207D01A68F6
:1034D000A95C1A683F2501322A401A6001E00121E7
:1034E0004942C9B2FFF7D8FD01E0FFF7E0FD2069CE
:1034F000FFF7BEFD002805D02069FFF7BDFD20695C
:10350000FFF7ADFD38BD000070B5041C00690D1C4F
:10351000FFF7B9FD00280FD0201C5C30FFF770FFCB
:10352000002840D008E0EFF31083DA0723D4214BC2
:103530005A68D205D20D0BD1231C9C33211C1E6866
:10354000A0310A6801363F2006409642EBD01BE0CE
:10355000103AD2B253B2002B08DA0F231A40083ABD
:10356000154B92089200D218536804E09B08C033B0
:10357000124A9B009B582069FFF785FD0028DBD08D
:10358000201CFFF767FFD7E71A680968013202407D
:103590008A4204D01968201C5C3045541A602069A6
:1035A000FFF781FD03E02069291CFFF775FD01206D
:1035B00070BDC04600ED00E018ED00E000E100E065
:1035C00038B5826D436D041C9A4208D0836D3F224A
:1035D000C3181D7D836D01331340836501E0012510
:1035E0006D42231CA8331B78FF2B0BD0201C1430FA
:1035F000FFF71DFF0A2805DD231CB033B4341B6818
:1036000022681A60281C38BD002110B5041E8C42A7
:1036100004D001F095FA211C01F09EF9081C10BDA0
:1036200010B5041E8C4203DA081AFFF7EDFF0419E7
:10363000201C10BD3F20704713B502686B46D9713E
:1036400007335468191C0122A04716BD08B500694C
:10365000022100F041FC08BD08B50069032100F01B
:1036600051FC08BD38B50D1C041C131C0069032156
:103670002A1C00F043FD002801D10123636038BDFE
:1036800010B5054C23685A1C04D103685B69984740
:103690002060031C181C10BD60000020074A08B5FC
:1036A0001368591C04D0012149421160181C03E021
:1036B0000069022100F014FD08BDC0466000002032
:1036C00008B503780349023303704222024800F030
:1036D000CBFD08BD1C0000202308002010B5017898
:1036E000031C42780020A12908D1212A2FD1184893
:1036F0001849072200F0B8FD012028E0212926D131
:10370000202A05D113490722114800F041FC04E0AA
:10371000222A10D19A780F4BDA710E4B9622196833
:10372000D200914210D1DC7901231C400CD1FA2047
:10373000FFF7FCFB0AE0232A09D1DA789B78120212
:103740001A43054B1A6002E0FFF7F6FB002010BD9C
:1037500023080020100000201800002070470000FF
:10376000064BFA2189009960054900220831196049
:1037700004495A6019611A767047C0465803002000
:10378000405100002308002010B507230F220240FB
:10379000141C00093034092A00DD0734CC54013BE5
:1037A000F4D210BD70B582291ED1C2B22A4953018C
:1037B000CB189D69294C80012C40C025AD052C43B8
:1037C0009C61274C0832201858610B6852019918E7
:1037D0000C798020404220430871D15C70208143E5
:1037E00030200143D15435E0002933D1C2B21A4907
:1037F0005301CB189E68194DC0242E40A4052643C2
:103800009E60184E800109683018083258605201D5
:10381000505C0726B0430126304350549E69354022
:103820002C439C610E4C5C61505C7024A0431024BE
:10383000204350549C680C488A182040802464031C
:103840002043986098684021800B800398605379EA
:103850000B43537170BDC0462C080020FFFFFF8F43
:103860008004002044060020FF3F00F038B5041C0F
:1038700008CC01211A78051C0A431A708022201CEA
:103880000021520001F0B7F82B689A78D107FCD4D8
:103890005C6238BD134BF0B51B6899035A029B015B
:1038A000C90ED20E5B0F1F2900D105211F2A00D19E
:1038B0001D22072B00D1032304688E01278D0A499E
:1038C0001F2539403143218501682A400C8DAC43C6
:1038D00022430A8502681903108D044B03400B43F1
:1038E0001385F0BD246080003FF8FFFFFF8FFFFFCE
:1038F000EFF3108303600123436072B670470368DF
:10390000002B02D162B6BFF36F8F704737B50569E0
:10391000041C6846002D12D1FFF7EAFF019B013B12
:1039200003D3621DD57FEDB2F9E768460193FFF737
:10393000E6FF0020854217D0206AE36913E0FFF715
:10394000D7FF019B0025013B04D3221C343215789C
:10395000EDB2F8E768460193FFF7D1FF00208542FA
:1039600002D0206BE36AC01A3EBD0000436810B568
:103970001A68037A01215B01D318FF339A7A0A434C
:103980009A72037A42685B01D318C2689C689104FA
:103990000B4A090922400A439A60037A42685B0194
:1039A000D3189A684021920B92039A6043681A6870
:1039B000037A08335B01D3181A790A431A7110BDD0
:1039C000FF3F00F0F7B50569041C0E1C171C684684
:1039D000002D1FD1FFF78CFF019B013B5A1C06D025
:1039E000621DD17F5A1E00293AD0131CF6E76846A3
:1039F0000193FFF784FF0025E369BD4235D0226AB9
:103A0000934232D25A1CE261A269D3181B787355D3
:103A10000135F1E7FFF76CFF019B013B5A1C08D011
:103A2000221C343215785A1EEDB2002D18D0131C0A
:103A3000F4E768460193FFF762FF0025E36ABD42A1
:103A400026D0226B934241D322E0621D0021D17720
:103A500030321678581E8E4214D1031C5A1CF4D1F1
:103A600068460193FFF74BFF38E0226A934235D155
:103A70000023E361012323616846FFF739FF019BBF
:103A8000013BEBE71170201C0193FFF76FFFF6E796
:103A9000226B934222D10023E36223616846FFF741
:103AA00027FF019B013B5A1CDAD0221C3432002133
:103AB000117001321678581E8E4201D1031CF2E7B4
:103AC0001170201C0193FFF751FFEAE75A1CE262D4
:103AD000A26AD3181B7873550135AFE7281CFEBDC9
:103AE00037B54368027A1B68083252019A18041CE1
:103AF000D0790123FF21184255D0D371A0686569A0
:103B000062680140002D1FD1490152189168890453
:103B1000890C2162216A002942D06361A36A684648
:103B20005360FFF7E5FE019B013B5D1C34D0621D35
:103B30000120D0772F3211785D1EC9B212180029EA
:103B400015D111702B1CF0E74B01D3189A68920421
:103B5000920C2263226B002A22D000226261A269A9
:103B600068465A60FFF7C4FE019B013B12E00193D7
:103B700010706846FFF7C3FE15E0221C34320120A6
:103B80001070621DD17F5D1EC9B230320029EED1A6
:103B900011702B1C5D1CF0D168460193FFF7AFFE3E
:103BA000201CFFF7E3FE37BD37B500236C46E371F9
:103BB0000734201C0D1CFFF783FD2B6818182860A4
:103BC00000F00AFE211C00F0C1FD2B6818182860C7
:103BD00020783EBD03290BD10D4BB2221B68520049
:103BE000985C8021494201439954022168220CE0EB
:103BF00001290CD1064B92221B685200985C80214F
:103C000049420143995402212822FF3299547047B6
:103C10002C08002038B5304B00240121051C1A2047
:103C20001C70FEF7FBFF1A200121FFF751F82B4B08
:103C3000192001211C70FEF7F1FF19200121FFF767
:103C400047F8274B2021DA6901200A43DA61254B26
:103C500006241A7802431A70234B0F2219789143D5
:103C6000197019782143197020490C782043087085
:103C700019780A401A701A7860210A431A701C4B8E
:103C80001C4A5A805A78D209FCD11B48FEF716FE0E
:103C90001A4C201CFFF7EAFD201CFFF7FBFD2368F0
:103CA0007F2219780A401A701A7804210A431A7080
:103CB0001A890C218A431A81C121114A890050585E
:103CC0000002000A5050802111601A7802210A4334
:103CD0001A7001232B7038BD4006002028080020F0
:103CE00000040040584400413C4400415944004114
:103CF000000C0040064000002D4700002C0800206A
:103D000000E100E00078002810D0094B01211B6879
:103D10001A898A431A811A8B08210A431A831A8B3B
:103D200004210A431A83034B00221A607047C046DD
:103D30002C080020300900200F4B9A69920B920347
:103D40009A611B680222FF331A72987980225242CC
:103D500002439A711A7A9007FCD5084B081C997A8D
:103D60007F221040914301439972997A80225242F6
:103D70000A439A727047C0462C0800200050004148
:103D800010B50B790C1C002B0BD1081CFFF7A6FCFF
:103D9000002804D1094B9A69920B92039A61012081
:103DA0000BE000F019FD211C00F004FD0028F6D105
:103DB000024B9A69920B92039A6110BD2C08002065
:103DC000F7B50E1C832A18D1CAB235495301CB1856
:103DD0009C693448B6012040C024A4052043986162
:103DE0003148083286195E610B685201D15C70203F
:103DF000814340200143D15450E0022A4AD12B4A4A
:103E000089008D580191002D48D13820FFF714F812
:103E1000274B80270360224B7F004360431D0562D0
:103E2000866005614561C561C760DD772F33041C7D
:103E3000C56205631D70381C5D7000F0BFFDA06198
:103E4000381C00F0BBFDFF2315491E407601A0621F
:103E50008E19B168134A07250A40C02189050A4313
:103E6000B260A16862681940126808314901885C33
:103E7000A843032528438854A268616813405B0166
:103E8000A269CB185A60201CFFF770FD019B0749FF
:103E90005C5003E0081C111CFFF784FCF7BDC04612
:103EA0002C080020FFFFFF8F800400200408002062
:103EB0007051000038B5051C0124064BA200D258F1
:103EC000002A06D0211C281C0134FFF779FFE4B238
:103ED000F3E738BD6400002008B5084B8A00D058CD
:103EE000002803D003689B68984706E0C9B2044BDA
:103EF0004901591888688004800C08BD0408002016
:103F00002C08002010B50C1CFFF7E6FF00280CD091
:103F1000064BE1B21B680831490159184A798023E0
:103F20005B4213434B710223CB7110BD2C08002060
:103F300070B5CAB2134B14485401890159180319BA
:103F400059609D681149083229408025AD022943F6
:103F5000996099684026890B89039960036851012B
:103F600059180D7935430D715101591889794D064C
:103F7000FAD551015918C979CD07FAD50419A068A5
:103F8000C0B270BD440600202C080020FF3F00F0A6
:103F900038B50C4B141C1B680D1CFF335A7940219B
:103FA0000A435A710021FFF7C3FFA04200D9201C29
:103FB0000023A34204D0044A9A5CEA540133F8E790
:103FC00038BDC0462C0800204406002010B5C9B2F8
:103FD0000C48490143189A689204920C3F2A08D968
:103FE000141C9A68403CA404920BA40C9203224334
:103FF00002E09A68920B92039A6041188868C0B2F6
:1040000010BDC0462C080020F0B51C1C2F4B85B0FD
:104010001B68061C0D1C0292002B51D02C4F3978C6
:10402000C9B2002902D11920FEF752FE64233B7069
:10403000284BAA00D058002805D0036802995B6875
:10404000221C984740E0301C291CFFF745FFA04286
:1040500004D2301C291CFFF73FFF041C291C301C14
:10406000FFF7B4FF1C4FE9B24A010191396803928E
:104070008B18FF335A7A01210A4318495A72AB014F
:10408000C9180298221C00F0ADFC002C1BD0301C7B
:10409000291CFFF721FF002815D1019B3A6808333E
:1040A0005B01D31819794020014319710121D9719D
:1040B00003995318FF339A7A01210A439A7202E056
:1040C0000120404200E0201C05B0F0BD3009002076
:1040D00028080020040800202C08002044060020A6
:1040E00013B56C460734221C0123FFF78DFF01280E
:1040F00001D1207801E00120404216BDF0B51C1C22
:104100003F4B85B01B680E1C0292002B6AD08023A7
:10411000DB019C4266D83B4D2978C9B2002902D107
:104120001A20FEF7D5FD642300222B700092002C8C
:1041300056D0354DF7B22B6801933B1C0833019ADA
:104140005B01D3189B79DB091AD0304B30491868D2
:1041500000F05EFB2F4B1721584300F059FB3B1C2E
:104160000833019A5B01D318DB799A0708D42A4BEC
:104170009A5D002A38D1421E002835D0101CEEE787
:10418000254B00229A55251E3F2D00D93F25234A55
:10419000B301D318181C02992A1C039300F022FCC7
:1041A000194A7B01D318039AA9045A619A69890CA8
:1041B000920B92030A439A613B1C019A08335B01FC
:1041C000D3180222DA715979802252420A435A7175
:1041D000009B029A5B1952190093641B0292A6E796
:1041E00000980BE0012008E001229A557B01ED18B0
:1041F000AB69101C9B0B9B03AB61404205B0F0BD4B
:1042000030090020400600202C0800200800002073
:1042100040420F007011010078040020800400204B
:1042200070B50E4D1C1C8B01ED18281C0E1C111CAA
:10423000221C00F0D7FBF6B20949760189194D61BD
:104240008A69084B201C13408B618B69A2049B0B6D
:10425000920C9B0313438B6170BDC0468004002009
:104260002C080020FF3F00F0F7B5114B01901B78A0
:104270000F1C141C002B19D10E4B1E78002E01D1DF
:10428000151C08E00C4D0D482E888019361900F0D9
:10429000A9FB2E800AE0002D08D0BA192B1C01982A
:1042A0000021FFF7BDFF36182D1AF4E7201CFEBDD4
:1042B000220800202008002076040020750300203A
:1042C000F8B50E1C00AF151E012D28D9D31DDB0833
:1042D000DB006A46D21A9546081C00F07FFC0130CC
:1042E0006C4640000323207063700222AA420ED263
:1042F0003378002B0BD0511CC9B20136A354A9420C
:1043000004D0002302326354D2B2EFE72A1C0548DE
:10431000211CFFF7A9FF431E9841C0B200E0002016
:10432000BD46F8BD2308002008B5044B00221A70D2
:10433000034B04491A88FFF797FF08BD20080020A7
:104340007604002075030020F0B5204A87B00123D1
:104350000026009102A91370051C0296FFF724FCA9
:1043600003AC092701903A1C201C311C00F043FBD0
:1043700002236370A023E371FA232372029B0122BC
:10438000DB196380019B62712371104A009B2770C7
:104390001670BB4205D1281C211C1A1CFFF764FFB4
:1043A00011E00B4B01221A700A4B211C3A1C281CED
:1043B0001E800296FFF758FF281C02A9FFF7F4FBA6
:1043C000281CFFF7B1FF012007B0F0BD2208002034
:1043D000200800207604002070B5CE7892B0051C2D
:1043E0000C1C022E08D1C9882D48FFF7ADFF031C15
:1043F000581E8341D8B251E000F0EEF9211C00F0C4
:10440000BAF9002803D0C3171B1AD80F46E0012EB3
:1044100004D1E2882349112A3BD837E0032E3DD14D
:10442000A278002A05D12049E2880B7893422DD842
:104430002FE0022A03D1A279281C1C4904E0012A9A
:1044400005D1A2791A49281CFFF73AFF26E0032A72
:1044500024D1184B01A91868FFF796F9164B03A948
:104460001868FFF791F9154B05A91868FFF78CF943
:10447000134B07A91868FFF787F900F0ADF909A9F0
:1044800000F089F9A279281C01A9DDE7D2B2002A3F
:1044900000D10A78281CFFF7E7FE012012B070BD9A
:1044A00023080020905100008C510000A251000010
:1044B000805100000CA0800040A0800044A080003B
:1044C00048A0800073B5051C48780C1C0B2878D8D0
:1044D00000F094F9081C7728773E4306474B686F35
:1044E00000206FE0097801AA002903D111705170F2
:1044F000281C09E0002313705370334B1B78012BE9
:1045000000D11370281C002102234FE08A78002379
:10451000012A04D101AA137053702C4BEEE72A4AEA
:10452000137049E08E78012E07D1284B01AA002193
:104530001E701170281C331C38E0002E08D1224A4E
:1045400001231370224A9169890B8903916138E034
:10455000A178281CFFF7F0FB33E0281CFFF73CFF95
:1045600030E0281C00211B4A1FE00A780020D306F7
:1045700028D1281CFFF79EFCA2781549154B022470
:104580001A600A682A23FF33D05C2043D0544A20A3
:10459000FF30145C01231C4314548A69920B92036C
:1045A0008A610EE00C4A281C00210123FFF738FE27
:1045B00007E08A78084B1A60054B9A69920B9203C0
:1045C0009A61012076BDC0467403002021080020B6
:1045D0002C0800203009002024080020F8B54B4B9F
:1045E000071C1C78002C00D08FE0494D2868838B75
:1045F00019070ED5201C211CFFF7D4F82B681020BA
:104600001A1CFF32917A01439172424A14600822C7
:104610009A832B689A8B50071FD504229A833E4BAE
:104620001A78002A0AD01A78013AD2B21A701B7886
:10463000002B03D11A200121FEF74AFB374B1A78D1
:10464000002A0AD01A78013AD2B21A701B78002BCD
:1046500003D119200121FEF73BFB2B68FF331A7AA7
:10466000D10626D510221A725A7940210A432C49C4
:104670005A710A786023381C1A4202D1FFF722FFD0
:1046800001E0FFF77DFB002806D02B688022FF3376
:10469000997952420A4301E0224B20229A712B68F9
:1046A000FF331A7A500604D540221A72597A0A4307
:1046B0005A722968FE230E8C00241E40E1B2002E9F
:1046C00023D0321C012322411A4216D0221C286812
:1046D000083252018218D079184203D1D279DA40D7
:1046E0001A4207D0104BA200D058002809D0036806
:1046F0001B6898470123A3409E430134092CDDD158
:1047000003E0381CFFF766FAF4E7F8BD2008002044
:104710002C08002030090020400600202808002036
:1047200044060020FF5000410408002008B502485C
:10473000FFF754FF08BDC04623080020014A024B82
:104740001A607047005000412C08002070B5446882
:104750000E1C0025002C09D02368201C5B68311C2E
:104760009847002804DB2D18E468F3E7281C01E0D3
:104770000120404270BD38B544680D1C002C08D0A3
:104780002368201C9B68291C9847002802D1E468F4
:10479000F4E7201C38BD38B544680D1C002C07D048
:1047A0002368201C291CDB689847E4682D18F5E76E
:1047B0002C7038BD38B544680D1C002C08D0236817
:1047C000201C1B68291C9847002803D1E468F4E7E3
:1047D000201C00E0012038BD064B0122196810B5ED
:1047E0001140054805D1022404700424447041603E
:1047F0001A6010BD3C0900203409002002B4714643
:1048000049084900095C49008E4402BC7047C04613
:10481000002934D00123002210B488422CD3012473
:104820002407A14204D2814202D209011B01F8E708
:10483000E400A14204D2814202D249005B00F8E7C1
:10484000884201D3401A1A434C08A04202D3001BED
:104850005C0822438C08A04202D3001B9C08224320
:10486000CC08A04202D3001BDC082243002803D05E
:104870001B0901D00909E3E7101C10BC7047002890
:1048800001D00020C04307B4024802A140180290A2
:1048900003BDC046D90000000029F0D003B5FFF7E2
:1048A000B9FF0EBC4243891A1847C046002941D0BF
:1048B00010B4041C4C40A44601230022002900D55A
:1048C0004942002800D5404288422CD301242407C5
:1048D000A14204D2814202D209011B01F8E7E4009F
:1048E000A14204D2814202D249005B00F8E788422B
:1048F00001D3401A1A434C08A04202D3001B5C08A3
:1049000022438C08A04202D3001B9C082243CC08FF
:10491000A04202D3001BDC082243002803D01B095D
:1049200001D00909E3E7101C6446002C00D5404281
:1049300010BC7047002806D003DB0020C0434008AD
:1049400001E08020000607B4024802A1401802904E
:1049500003BDC046190000000029EBD003B5FFF7E6
:10496000A7FF0EBC4243891A1847C0467047C0468D
:1049700070B50E4B0E4D0024ED1AAD101E1CAC424E
:1049800004D0A300F35898470134F8E700F06AF91F
:10499000084B094D0024ED1AAD101E1CAC4204D08A
:1049A000A300F35898470134F8E770BDF0000020E9
:1049B000F0000020F00000200401002008B5034BA7
:1049C000011C186800F068F808BDC046EC00002023
:1049D00008B5034B011C186800F016F808BDC04666
:1049E000EC00002010B50023934203D0CC5CC454EB
:1049F0000133F9E710BD031C8218934202D01970ED
:104A00000133FAE77047000030B5002940D004397F
:104A10000B68002B00DAC9181E4A1368141C002BFF
:104A200002D14B60116033E099420FD208680A1836
:104A30009A4205D113685268C01808604A6000E0C5
:104A40004B60216024E08A4203D8131C5A68002A74
:104A5000F9D11D685C198C420BD109686918581886
:104A60001960904214D114685268091919605A608B
:104A70000EE08C4202D90C23036009E008680C1890
:104A8000944203D114685268001908604A60596062
:104A900030BDC0464409002070B50323CD1C9D43A2
:104AA0000835061C0C2D01D20C2501E0002D3FDB42
:104AB0008D423DD3204B1C681A1C211C002913D0A9
:104AC0000868431B0DD40B2B02D90B60CC181EE0D9
:104AD0008C4202D1636813601AE0486860600C1C65
:104AE00016E00C1C4968E9E7144C2068002803D143
:104AF000301C00F061F82060301C291C00F05CF8CC
:104B0000431C15D0C41C03239C4384420AD1256056
:104B1000201C0B300722231D9043C31A0BD05A428E
:104B2000E25008E0211A301C00F046F80130EED1C6
:104B30000C233360002070BD440900204009002090
:104B4000174B10B51C68A36B002B15D11820FFF76D
:104B500035FF144BA0630380134B4380134B8380BA
:104B6000134BC380134B0381052343810B238381A4
:104B70000122002302614361084B074AA46B2069AC
:104B8000616900F033F80122002380185941206147
:104B900061614800400810BD2D7F954C2DF451589F
:104BA000EC0000200E330000CDABFFFF34120000FC
:104BB0006DE6FFFFECDEFFFF38B5074C0023051C58
:104BC000081C236000F034F8431C03D12368002B39
:104BD00000D02B6038BDC0464C0900200023C25CC9
:104BE0000133002AFBD1581E704700009C46030485
:104BF000F0B51B0C17043F0C150C1E1C041C000CFC
:104C00007E436B4347434543FB18300C18188742DB
:104C100002D980235B02ED18030CED1863465C4358
:104C20004A433604360CA118000480194919F0BD16
:104C3000094A1368002B0CD018186946884202D81C
:104C40001060181C7047054B0C2201201A6040426E
:104C5000F8E7034B1360EFE7480900204C090020F8
:104C600050090020F8B5C046F8BC08BC9E46704705
:104C7000F8B5C046F8BC08BC9E467047120100005B
:104C8000932600001200000093260000110100008E
:104C90009326000011000000932600001001000080
:104CA0009326000010000000932600000F00000073
:104CB000102700000E000000102700001300000065
:104CC000102700000D000000002D31015245414425
:104CD00059000000000000000B000000020000006E
:104CE00004000000FF00FFFFFFFF0B0000000000BA
:104CF0000A0000000200000004000000FF00FFFFA7
:104D0000FFFF0A00000000000E0000000800000085
:104D100004000000FF00FFFFFFFF0E000000000086
:104D200009000000040000001C000000FF0001005A
:104D3000010009000000000008000000040000005D
:104D40001C000000FF000000000010000000000038
:104D50000F000000040000001C000000FF00010321
:104D600001030F0000000000140000000500000017
:104D70002C000000FF000200020004000000000000
:104D800015000000050000002C000000FF000300DB
:104D90000300050000000000060000000400000001
:104DA0001C000000FF0000010001060000000000E0
:104DB00007000000040000001C000000FF000101CB
:104DC00001010700000000001200000004000000C4
:104DD0001C000000FF0000030003020000000000B0
:104DE00010000000040000001C000000FF00000292
:104DF0000002000000000000130000000500000099
:104E00002C000000FF00030003000300000000006E
:104E100011000000040000001C000000FF0001025F
:104E2000010201000000000002000000010000007B
:104E3000020000000000FFFFFFFF02000100000071
:104E4000080000000100000018000000020000043B
:104E5000000408000100000009000000010000003B
:104E60001800000003000104010409000000000014
:104E70000400000001000000000000000400FFFF2B
:104E8000FFFF04000000000005000000010000001A
:104E9000000000000500FFFFFFFF0500010000000B
:104EA0000200000001000000000000000A00FFFFF7
:104EB000FFFF0200000000001600000002000000DA
:104EC00004000000FF00FFFFFFFF060000000000DD
:104ED000170000000200000004000000FF00FFFFB8
:104EE000FFFF0700000000000C00000003000000AE
:104EF00004000000FF00FFFFFFFF0C0001000000A6
:104F00000A0000000300000004000000FF00FFFF93
:104F1000FFFF0A00010000000B000000030000007A
:104F200004000000FF00FFFFFFFF0B000100000076
:104F3000030000000B00000004000000FF00FFFF62
:104F4000FFFFFF00000000001B0000000B0000003E
:104F500004000000FF00FFFFFFFFFF000000000053
:104F60001C0000000600000000000000FF00FFFF22
:104F7000FFFFFF0000000000180000000600000016
:104F800000000000FF00FFFFFFFFFF000000000027
:104F9000190000000600000000000000FF00FFFFF5
:104FA000FFFFFF00010000001600000003000000EA
:104FB00000000000FF00FFFFFFFFFF0001000000F6
:104FC000170000000300000000000000FF00FFFFCA
:104FD000FFFFFF00000000001600000002000000BC
:104FE00000000000FF00FFFFFFFFFF0000000000C7
:104FF000170000000200000000000000FF00FFFF9B
:10500000FFFFFF000000000013000000020000008E
:1050100000000000FF00FFFFFFFFFF000000000096
:10502000100000000200000000000000FF00FFFF71
:10503000FFFFFF000000000012000000020000005F
:1050400000000000FF00FFFFFFFFFF000000000066
:10505000110000000200000000000000FF00FFFF40
:10506000FFFFFF00000000000D0000000400000032
:105070000C000000FF000100FFFF0D000000000019
:1050800015000000050000000C000000FF000300F8
:10509000FFFFFF0000000000060000000400000009
:1050A0000C000000FF000001FFFFFF0000000000F7
:1050B00007000000040000000C000000FF000101D8
:1050C000FFFFFF00000000000300000001000000DF
:1050D00002000000FF00FFFFFFFFFF0000000000D4
:1050E0000200000001000000020000001400FFFFA9
:1050F000FFFF02000D0A006E616E00696E66006FB0
:1051000076660000000000000000000000000000C3
:1051100009350000412E00004B3400000D34000022
:1051200025340000C1350000E5310000D531000014
:105130000D330000FB310000D13100000000000001
:105140000000000000000000393600006536000055
:1051500035360000593600004D3600009D360000FF
:105160008136000000000000000000000000000088
:10517000E13A0000C53900000D39000000000000D0
:1051800041726475696E6F204C4C4300040309043E
:1051900012010002EF02014041234D800001010293
:1051A000030141726475696E6F205A65726F004326
:0851B0000000000000000000F7
:1051B800010000008813000040420F00FFFFFFFFBE
:1051C80000C2010000000800FFFFFFFF080B0002FB
:1051D8000202000009040000010202000005240088
:1051E800100104240206052406000105240101011A
:1051F8000705810310001009040100020A000000DD
:105208000705020240000007058302400000000075
:10521800FFFFFFFF00000000830000000200000005
:1052280082000000000000000000000000000000F4
:105238000000000000000000000000000000000066
:105248000000000000000000000000000000000056
:10525800000000000000000000000000AF51000046
:105268000000000000000000000000000000000036
:105278000000000000000000000000000000000026
:105288000000000000000000000000000000000016
:105298000000000000000000000000008C0000205A
:1052A800DD20000041260000AD2700006137000026
:1052B8003D470000B520000000000000000000008D
:040000030000285978
�      	                              
            e  �L#x +�K +�H � �##p�\         �K +�HI � �Hh +�K + ИG��F      `   X       JKx )	�Ix	xAɲp� I��ax1ɲpx�)�x	)	�Ix@B��px	xAɲpxx�Bр"K��apGx           D A��i���h$�C`�i#B��h#C`h����i#B���i�@B��KC`�iZ���#�C`���i���h"C`�  @~����pG  ~#Q��B�B�B��@B�B��B�K"p ���pG�Fy   p�h��!�2B&Ѐ ���r#Sp@!K�qPq^hM� .@�C^`^i5@(CXaH`Ha]hH(@�%�(CX`Xh��X` #Qq#q�z��  ��� yp��  �����     �? � #qCqK`�`x"CppG�F�  8�6K !�i 
C�a4K$xCp2K"x�Cpx!Cp/Ix Cpx
@px`!
Cp+K+JZ�ZxR� *��)K!x
Cp�x���&HhQ"@�B �!@��"I)@!C�h�
@* �"�!
@�C"C�h!�
@�B �"
@�J@
C�x"
@px!H
CpXb�!�C��!�C� !�"�v�8�  @XD A<D AYD A  @@   P A$`� ?��������  ��J_��Xi'@ @03�@��"Yh
CZ`	�/{�AK��8"�5��H5BaRi����
CZaYiJ
@Zak�"�qYy�"RB
CZqk��y��� ���    �? ���N3x +�KJdZl��ZdXlJ@Zd�#[ �\@ C�T#3pH'�7�]#@�KZl���B�\l��"I���#�U #3p � ��z   �  �   �? ��0�y " ) �"C�qpG  K�0Zi��Za#r�y�#[BC�qz���pG�F�  �#[BCɲ�rpGp��#"[ �TKJ\l�!@�CF%\d�5@$DUM0&d�%m FU]k@)C�%Ycm �!AU	Mc�%m DU\o"@Zg�#[ �Tp��F�  �����   X  0�6J#Qh �C#CQ`3I�iC�a2H2J����C���h���/K px��,H@x@� (�� �`Xx@� (��(L&HD`Xx@� (�ۂ$#H�D�Xx@� (�ې��$�C���h���LH�b�hH��Մ�M,C���hH��Մ�%,C���h��H�hE���h��� "�`ZxR� *��H
JP`ZxR� *�� #rKr�r�r0��F @ A  @    @  @ ��}
    ���
���������JH8��B�JK�B�
�
L�B�� #��B���X3
`�� ���B�� !�����    \   �  \     3J8�h3�Ѳ )�0Kx#@/K
�h.I�B�`�`,I9 )��`#h����#�C(K�`"K[hG��)�b� ��� �Z�#K�"�#I�`"
`"I
`�"�`�aK J�!Z`J	j  
Cb "�`"`�h �GK (�"px *�   �� ����x +�� �� (��  �� �����F    8 @�  5�sH�  � � D A�D A�D A� ��  {   ����� �����KL#`��b� !h��P� � P A  p��� �;�@ jF#0Sppv#�:xZ  )�(iF #����@�p��B��hF�R3��  ���Jhx�I'�7 8rpSx�H�Np�x3��x3�	C3�y�K�Qy�	C��y�I��y�C
�@"zq�O:x�O8xC�H�FbE ��� ܀!I �B �n�	܁* ђ�* ѕ�* �d��#[ �B ��� �X��#� �B �W�K�B �O�R�#�Bi���#� �B"Ј#�BiР#� �B �@� ����1�(h������;�K�B �/� �1�K�B ��K�B �)�3�kq"�3�
+��"(h�B�
���~I�3�
+��C"(h�B�
���yI�3�
+ ��3�۲+� +�+ ���
�(hҲpI�"�oI �Y�;�"(h�B�:������
�(hiIҲ�����3� +q��~� ������)�"��aI #�(h"��^I "
��P"@\Jp� 0@��( ���x�3[��y *Л ����(h"���"�CNJɲp�!@�1� ) У�� ) џ��) ٛ�x�3[� *� "Zq��!Yq���#�C<KҲp�"
@�2� * Ѐ�� * �|��* �x�x +��3[��y�j�� "3[�q�3[��y_]��@"3[��q�"3[���3[��y�J��"3[�q�3[��y�=�� "3[��q�"3[�q0��F�   }   �   �   �   �       !   �!  !"  \     L  <  @  ~   |   �"(h�B�
���I #���� ����� !�������FH   �K"��h���� ��F  �KlF4h!"��7� x��F  �L ���  �B�"hH#�3�\#@�  �Jh#"���� �  p�L 
���� #�B� h1*���p�  ��L ���� #'4�B
� ,�)"8h����$-��3���F  ��GK�"ZaKd"���F D A�   (�KJ`Kp� (�JK`pG�  �  �   �  0�
I��	x )*�*� h�*� � � xR ��;��B�!@	)�0%)C �71p 	;���0#px#Kp
 ��p
 �pK2h�h�I	h�h�����0��F�   �  r����J`h���ChGpG�F�  
K� *	��:��� *р"	K�aK� *��:��� *�K"`pG�    D A�   �D A𵑰��J1�1�Q�Q�`�`��K�H�hz%RR� RX�I`�h��bC`�I $
`�J`�L%p�L�M#h(i@!�G (��K"`�Kd"��K "`�K`�K�M�O`*h;h�B�ҽKhx�* � �#* ���N3x +вK�Ih"�h����KxS+?�;h*h�BٯH2*`��Khh1`�N�B�2` �3`�H2h h� ���3h)hZ*`�Jh�`�Jp+h;+`�Kh:`�K�Jxh�B
�"h�H� h�i�G (ВK"`�Kd"��F��R+щH�J#h hh[i��G�K�"Zad"�K
�O+сK�Jhhp}�H+�}K�Jhh�u�W+�yK�Jhh`m�o+�uK!h�h+�rK|Hh!�`����\�w+�lKwHh!h`��G+�sKh����vKh���b�tKx + �C�cK hh�G=�T+�#3p^Khd�N+�3x +�ZKaIh"�h��f� #3p'�V+W�#hcI�h"��[�#haI�h"��U�`M#h)�h"��N�#h]I�h
"��H�#h)�h"��B�IOJMWI #9`+`:(h^`x� +�h3`��;N*h3h�h��)�3hII�h"��#��)`II9`8JhX`x +�5Kh2`��3h*h�h���3h�h1I"��1JX+�!N#M6hh*h� �B
�MX�a7H(�M(}���[��K3Ih�h��Y+ �}�hK0I *�h`p�Mhhkh
N�%�C�s` *e�(K	M+�N3}��� #M-h���BG�"MN5�J�p   @ A@  8  4  �  0  �  D  �D A�   (  ,  <  �   �  �  �  $   D A�   �  �   �  �  �  �  �  �  ����  �   D�������B�Н FY3NQ��@N5}��՝ I@���<K=Ih�h.�Z+/�;Khh &��B�(x1 ��5��2K4Ih"�h��V�#"2@6	01	* �1 �jF�T;��#h��h"��A�#h'I�h"��;�&Kz"p%K "`%Kx�B-�K#Ih"�h��*�%�09ȲK	(�h*C`�A9)�h7:1�a9)�hW:
C�,*�Jh`�I
p "`Kh2`
Kh2���F @ A�  �  �  �  �  0  �  �   �  <  ,  �K x$CpK"x�Cpx!CpIx Cpx
@px !
CpK!j
CbKJZ�ZxR� *���"HI���0�J #pJpJpJpJpJp�JD A5D AKD A  @  @@    B*�  �    �  �       ���H��/� ��F  BK~@�pG�F  B����� (��H�� ���F  B����� #�B�����#;ZBSA�p�
F�B� x����4��(p������ p �
X@K@ �Z	H@��pG�F  �� $&�B �����K��x� +�1����
K� *�Jx* )��j)p�/��9�4����0 � ��  �    �>N�� "�2p<K�B�"�:I�p#BЀ4�C��~�3x�� +� %5p��v�3x���B6�C(�q(S�(��# � ��U� ���R� ��%�C����L�� '�$J� +�!I�	x )����=�9���y�= -�� 
����1�����.���>�3x +
�5p��;	x���3�����(� ��3۲�1 ��<� ,�� ������K%p � %(��    �  �8L�� #�#p�B�#�4J�4Jd&pC ����2O���� (� /�?�� /�> .��M�%����#x +8����(�(=� ����9��!0�����!���#x� +�����������#x?��+
���B�3x�B��Crx۲�B� ���� #� �����"x *� &&p�+��k�2ݲ���J #p&0��  �     5 � #�B��\�T3�����B�p3��pG #�\3 *��XpG���F����FpG���F����FpG	Arduino LLC Arduino Zero       @A#M               @   �            �  !    U  o  �    v   Dec 20 2016 15:36:39 X

 Y

 Z #

 > 2.0    =  Y  u  �  �  �  �  [Arduino:XYZ]   !B c0�@�P�`�p�)�J�k���������1s2R"�R�B�r�b9��{�Z��Ӝ�����b$C4 �d�t�D�Tj�K�(�	������ō�S6r&0�v�f�V�F[�z��8�����׼��H�X�h�x@a(#8���َ��H�i�
�+��Z�J�z�jqP
3:*���˿���y�X�;���l�|�L�\",<`A�������*��h�I��~�n�^�N>2.Qp���������:�Y�x�����ʱ��-�N�o�� �0� P%@Fpg`������ڳ=���^���"�25BRwbVr�˥����n�O�,�
��4�$��ftGd$TDۧ������_�~��<��&�6��WfvvF4VL�m��/�ș鉊���DXeHx'h���8�(}�\�?����؛����uJTZ7jz�
��*�:.��l�Mͪ����ɍ&|ld\EL�<�,���>�]�|ߛ���ُ��n6~UNt^�.�>��        	C  �2	    $ $ $ $ � �	 
   �@  @    �    i   A       